{
  "_format": "hh-sol-artifact-1",
  "contractName": "RoundManager",
  "sourceName": "src/contracts/RoundManager.sol",
  "abi": [
    {
      "inputs": [],
      "stateMutability": "nonpayable",
      "type": "constructor"
    },
    {
      "anonymous": false,
      "inputs": [
        {
          "indexed": false,
          "internalType": "uint256",
          "name": "roundId",
          "type": "uint256"
        },
        {
          "indexed": false,
          "internalType": "address",
          "name": "user",
          "type": "address"
        },
        {
          "indexed": false,
          "internalType": "string",
          "name": "reason",
          "type": "string"
        }
      ],
      "name": "AutomaticDistributionFailed",
      "type": "event"
    },
    {
      "anonymous": false,
      "inputs": [
        {
          "indexed": false,
          "internalType": "uint256",
          "name": "roundId",
          "type": "uint256"
        },
        {
          "indexed": false,
          "internalType": "address",
          "name": "user",
          "type": "address"
        },
        {
          "indexed": false,
          "internalType": "enum RoundManager.Team",
          "name": "team",
          "type": "uint8"
        },
        {
          "indexed": false,
          "internalType": "uint256",
          "name": "amount",
          "type": "uint256"
        }
      ],
      "name": "BetPlaced",
      "type": "event"
    },
    {
      "anonymous": false,
      "inputs": [
        {
          "indexed": false,
          "internalType": "uint256",
          "name": "roundId",
          "type": "uint256"
        },
        {
          "indexed": false,
          "internalType": "address",
          "name": "user",
          "type": "address"
        },
        {
          "indexed": false,
          "internalType": "uint256",
          "name": "amount",
          "type": "uint256"
        }
      ],
      "name": "RewardsClaimed",
      "type": "event"
    },
    {
      "anonymous": false,
      "inputs": [
        {
          "indexed": false,
          "internalType": "uint256",
          "name": "roundId",
          "type": "uint256"
        },
        {
          "indexed": false,
          "internalType": "enum RoundManager.Team",
          "name": "winningTeam",
          "type": "uint8"
        }
      ],
      "name": "RoundCompleted",
      "type": "event"
    },
    {
      "anonymous": false,
      "inputs": [
        {
          "indexed": false,
          "internalType": "uint256",
          "name": "roundId",
          "type": "uint256"
        },
        {
          "indexed": false,
          "internalType": "uint256",
          "name": "startTime",
          "type": "uint256"
        },
        {
          "indexed": false,
          "internalType": "enum RoundManager.DistributionType",
          "name": "distributionType",
          "type": "uint8"
        }
      ],
      "name": "RoundCreated",
      "type": "event"
    },
    {
      "anonymous": false,
      "inputs": [
        {
          "indexed": false,
          "internalType": "uint256",
          "name": "roundId",
          "type": "uint256"
        },
        {
          "indexed": false,
          "internalType": "enum RoundManager.RoundStatus",
          "name": "newStatus",
          "type": "uint8"
        }
      ],
      "name": "RoundStatusChanged",
      "type": "event"
    },
    {
      "inputs": [],
      "name": "activeRoundId",
      "outputs": [
        {
          "internalType": "uint256",
          "name": "",
          "type": "uint256"
        }
      ],
      "stateMutability": "view",
      "type": "function"
    },
    {
      "inputs": [
        {
          "internalType": "address",
          "name": "",
          "type": "address"
        }
      ],
      "name": "authorizedProcessors",
      "outputs": [
        {
          "internalType": "bool",
          "name": "",
          "type": "bool"
        }
      ],
      "stateMutability": "view",
      "type": "function"
    },
    {
      "inputs": [
        {
          "internalType": "uint256",
          "name": "roundId",
          "type": "uint256"
        },
        {
          "internalType": "address",
          "name": "user",
          "type": "address"
        }
      ],
      "name": "calculateReward",
      "outputs": [
        {
          "internalType": "uint256",
          "name": "",
          "type": "uint256"
        }
      ],
      "stateMutability": "view",
      "type": "function"
    },
    {
      "inputs": [
        {
          "internalType": "uint256",
          "name": "roundId",
          "type": "uint256"
        }
      ],
      "name": "claimRewards",
      "outputs": [],
      "stateMutability": "nonpayable",
      "type": "function"
    },
    {
      "inputs": [
        {
          "internalType": "uint256",
          "name": "roundId",
          "type": "uint256"
        },
        {
          "internalType": "enum RoundManager.Team",
          "name": "winningTeam",
          "type": "uint8"
        }
      ],
      "name": "completeRound",
      "outputs": [],
      "stateMutability": "nonpayable",
      "type": "function"
    },
    {
      "inputs": [
        {
          "internalType": "uint256",
          "name": "duration",
          "type": "uint256"
        },
        {
          "internalType": "enum RoundManager.DistributionType",
          "name": "distributionType",
          "type": "uint8"
        }
      ],
      "name": "createRound",
      "outputs": [],
      "stateMutability": "nonpayable",
      "type": "function"
    },
    {
      "inputs": [],
      "name": "getActiveRound",
      "outputs": [
        {
          "internalType": "uint256",
          "name": "id",
          "type": "uint256"
        },
        {
          "internalType": "enum RoundManager.RoundStatus",
          "name": "status",
          "type": "uint8"
        },
        {
          "internalType": "uint256",
          "name": "startTime",
          "type": "uint256"
        },
        {
          "internalType": "uint256",
          "name": "endTime",
          "type": "uint256"
        },
        {
          "internalType": "uint256",
          "name": "totalStaked",
          "type": "uint256"
        },
        {
          "internalType": "enum RoundManager.Team",
          "name": "winningTeam",
          "type": "uint8"
        },
        {
          "internalType": "uint256",
          "name": "platformFee",
          "type": "uint256"
        },
        {
          "internalType": "enum RoundManager.DistributionType",
          "name": "distributionType",
          "type": "uint8"
        }
      ],
      "stateMutability": "view",
      "type": "function"
    },
    {
      "inputs": [
        {
          "internalType": "uint256",
          "name": "roundId",
          "type": "uint256"
        }
      ],
      "name": "getParticipants",
      "outputs": [
        {
          "internalType": "address[]",
          "name": "",
          "type": "address[]"
        }
      ],
      "stateMutability": "view",
      "type": "function"
    },
    {
      "inputs": [
        {
          "internalType": "uint256",
          "name": "roundId",
          "type": "uint256"
        },
        {
          "internalType": "enum RoundManager.Team",
          "name": "team",
          "type": "uint8"
        }
      ],
      "name": "getTeamParticipants",
      "outputs": [
        {
          "internalType": "uint256",
          "name": "",
          "type": "uint256"
        }
      ],
      "stateMutability": "view",
      "type": "function"
    },
    {
      "inputs": [
        {
          "internalType": "uint256",
          "name": "roundId",
          "type": "uint256"
        },
        {
          "internalType": "enum RoundManager.Team",
          "name": "team",
          "type": "uint8"
        }
      ],
      "name": "getTeamStakes",
      "outputs": [
        {
          "internalType": "uint256",
          "name": "",
          "type": "uint256"
        }
      ],
      "stateMutability": "view",
      "type": "function"
    },
    {
      "inputs": [
        {
          "internalType": "uint256",
          "name": "roundId",
          "type": "uint256"
        },
        {
          "internalType": "address",
          "name": "user",
          "type": "address"
        }
      ],
      "name": "getUserBet",
      "outputs": [
        {
          "internalType": "uint256",
          "name": "amount",
          "type": "uint256"
        },
        {
          "internalType": "enum RoundManager.Team",
          "name": "team",
          "type": "uint8"
        },
        {
          "internalType": "bool",
          "name": "claimed",
          "type": "bool"
        }
      ],
      "stateMutability": "view",
      "type": "function"
    },
    {
      "inputs": [],
      "name": "lastRoundId",
      "outputs": [
        {
          "internalType": "uint256",
          "name": "",
          "type": "uint256"
        }
      ],
      "stateMutability": "view",
      "type": "function"
    },
    {
      "inputs": [],
      "name": "minDuration",
      "outputs": [
        {
          "internalType": "uint256",
          "name": "",
          "type": "uint256"
        }
      ],
      "stateMutability": "view",
      "type": "function"
    },
    {
      "inputs": [
        {
          "internalType": "uint256",
          "name": "roundId",
          "type": "uint256"
        },
        {
          "internalType": "enum RoundManager.Team",
          "name": "team",
          "type": "uint8"
        }
      ],
      "name": "placeBet",
      "outputs": [],
      "stateMutability": "payable",
      "type": "function"
    },
    {
      "inputs": [
        {
          "internalType": "uint256",
          "name": "",
          "type": "uint256"
        }
      ],
      "name": "rounds",
      "outputs": [
        {
          "internalType": "uint256",
          "name": "id",
          "type": "uint256"
        },
        {
          "internalType": "enum RoundManager.RoundStatus",
          "name": "status",
          "type": "uint8"
        },
        {
          "internalType": "uint256",
          "name": "startTime",
          "type": "uint256"
        },
        {
          "internalType": "uint256",
          "name": "endTime",
          "type": "uint256"
        },
        {
          "internalType": "uint256",
          "name": "totalStaked",
          "type": "uint256"
        },
        {
          "internalType": "enum RoundManager.Team",
          "name": "winningTeam",
          "type": "uint8"
        },
        {
          "internalType": "uint256",
          "name": "platformFee",
          "type": "uint256"
        },
        {
          "internalType": "enum RoundManager.DistributionType",
          "name": "distributionType",
          "type": "uint8"
        }
      ],
      "stateMutability": "view",
      "type": "function"
    },
    {
      "inputs": [
        {
          "internalType": "uint256",
          "name": "roundId",
          "type": "uint256"
        }
      ],
      "name": "withdrawPlatformFees",
      "outputs": [],
      "stateMutability": "nonpayable",
      "type": "function"
    }
  ],
  "bytecode": "0x608060405261012c60025534801561001657600080fd5b506001600460003373ffffffffffffffffffffffffffffffffffffffff1673ffffffffffffffffffffffffffffffffffffffff16815260200190815260200160002060006101000a81548160ff021916908315150217905550612cdd8061007e6000396000f3fe6080604052600436106100f35760003560e01c80636aa214161161008a578063aa13acd411610059578063aa13acd41461034f578063c03fb87c14610378578063c1e3bd3e146103b7578063d86005f6146103f4576100f3565b80636aa2141614610268578063781c065c146102915780638c65c81f146102ce578063a18f07a014610312576100f3565b8063121cd224116100c6578063121cd224146101ac578063388ca80f146101d55780633ceb274a14610200578063567157611461023d576100f3565b806303edf914146100f8578063041deb501461011457806306c5b7a0146101515780630962ef7914610183575b600080fd5b610112600480360381019061010d9190611cf3565b61041f565b005b34801561012057600080fd5b5061013b60048036038101906101369190611cf3565b610991565b6040516101489190611d42565b60405180910390f35b34801561015d57600080fd5b506101666109e7565b60405161017a989796959493929190611e64565b60405180910390f35b34801561018f57600080fd5b506101aa60048036038101906101a59190611ee2565b610af3565b005b3480156101b857600080fd5b506101d360048036038101906101ce9190611cf3565b610e43565b005b3480156101e157600080fd5b506101ea6110a2565b6040516101f79190611d42565b60405180910390f35b34801561020c57600080fd5b5061022760048036038101906102229190611cf3565b6110a8565b6040516102349190611d42565b60405180910390f35b34801561024957600080fd5b506102526111e6565b60405161025f9190611d42565b60405180910390f35b34801561027457600080fd5b5061028f600480360381019061028a9190611ee2565b6111ec565b005b34801561029d57600080fd5b506102b860048036038101906102b39190611f6d565b6113dd565b6040516102c59190611fb5565b60405180910390f35b3480156102da57600080fd5b506102f560048036038101906102f09190611ee2565b6113fd565b604051610309989796959493929190611e64565b60405180910390f35b34801561031e57600080fd5b5061033960048036038101906103349190611fd0565b61146c565b6040516103469190611d42565b60405180910390f35b34801561035b57600080fd5b5061037660048036038101906103719190612035565b6115fe565b005b34801561038457600080fd5b5061039f600480360381019061039a9190611fd0565b611699565b6040516103ae93929190612075565b60405180910390f35b3480156103c357600080fd5b506103de60048036038101906103d99190611ee2565b61172b565b6040516103eb919061216a565b60405180910390f35b34801561040057600080fd5b506104096117cf565b6040516104169190611d42565b60405180910390f35b60008054036104d05760006001541480610481575060028081111561044757610446611d5d565b5b60036000600154815260200190815260200160002060010160009054906101000a900460ff16600281111561047f5761047e611d5d565b5b145b6104c0576040517f08c379a00000000000000000000000000000000000000000000000000000000081526004016104b79061220f565b60405180910390fd5b6104cd610e1060016117d5565b91505b60006003600084815260200190815260200160002090508060030154421061059b5760018160010160006101000a81548160ff0219169083600281111561051a57610519611d5d565b5b02179055507fd96e2835b6d786c690419e463f839a6b82b70864178108924bb0985c0b85cafd83600160405161055192919061222f565b60405180910390a1600080819055506040517f08c379a0000000000000000000000000000000000000000000000000000000008152600401610592906122ca565b60405180910390fd5b60005483146105df576040517f08c379a00000000000000000000000000000000000000000000000000000000081526004016105d690612336565b60405180910390fd5b600060028111156105f3576105f2611d5d565b5b8160010160009054906101000a900460ff16600281111561061757610616611d5d565b5b14610657576040517f08c379a000000000000000000000000000000000000000000000000000000000815260040161064e906123a2565b60405180910390fd5b6000600281111561066b5761066a611d5d565b5b82600281111561067e5761067d611d5d565b5b036106be576040517f08c379a00000000000000000000000000000000000000000000000000000000081526004016106b59061240e565b60405180910390fd5b60003411610701576040517f08c379a00000000000000000000000000000000000000000000000000000000081526004016106f8906124a0565b60405180910390fd5b60008160060160003373ffffffffffffffffffffffffffffffffffffffff1673ffffffffffffffffffffffffffffffffffffffff16815260200190815260200160002060010154036107b35780600701339080600181540180825580915050600190039060005260206000200160009091909190916101000a81548173ffffffffffffffffffffffffffffffffffffffff021916908373ffffffffffffffffffffffffffffffffffffffff1602179055505b60405180608001604052803373ffffffffffffffffffffffffffffffffffffffff1681526020013481526020018360028111156107f3576107f2611d5d565b5b8152602001600015158152508160060160003373ffffffffffffffffffffffffffffffffffffffff1673ffffffffffffffffffffffffffffffffffffffff16815260200190815260200160002060008201518160000160006101000a81548173ffffffffffffffffffffffffffffffffffffffff021916908373ffffffffffffffffffffffffffffffffffffffff1602179055506020820151816001015560408201518160020160006101000a81548160ff021916908360028111156108bc576108bb611d5d565b5b021790555060608201518160020160016101000a81548160ff021916908315150217905550905050348160050160008460028111156108fe576108fd611d5d565b5b60028111156109105761090f611d5d565b5b8152602001908152602001600020600082825461092d91906124ef565b925050819055503481600401600082825461094891906124ef565b925050819055507f4f1eed5e863a822b0f9eb960dfdab2cc5a99beec4b191f2a7a9c7e28e5a15524833384346040516109849493929190612532565b60405180910390a1505050565b60006003600084815260200190815260200160002060050160008360028111156109be576109bd611d5d565b5b60028111156109d0576109cf611d5d565b5b815260200190815260200160002054905092915050565b600080600080600080600080600060036000805481526020019081526020016000209050600080541480610a51575060006002811115610a2a57610a29611d5d565b5b8160010160009054906101000a900460ff166002811115610a4e57610a4d611d5d565b5b14155b80610a60575080600301544210155b15610a8857600060026000806000806000809850985098509850985098509850985050610ae9565b80600001548160010160009054906101000a900460ff168260020154836003015484600401548560080160009054906101000a900460ff16866009015487600a0160009054906101000a900460ff1698509850985098509850985098509850505b9091929394959697565b6000600360008381526020019081526020016000209050600280811115610b1d57610b1c611d5d565b5b8160010160009054906101000a900460ff166002811115610b4157610b40611d5d565b5b14610b81576040517f08c379a0000000000000000000000000000000000000000000000000000000008152600401610b78906125c3565b60405180910390fd5b60008160060160003373ffffffffffffffffffffffffffffffffffffffff1673ffffffffffffffffffffffffffffffffffffffff16815260200190815260200160002090506000816001015411610c0d576040517f08c379a0000000000000000000000000000000000000000000000000000000008152600401610c049061262f565b60405180910390fd5b8060020160019054906101000a900460ff1615610c5f576040517f08c379a0000000000000000000000000000000000000000000000000000000008152600401610c569061269b565b60405180910390fd5b8160080160009054906101000a900460ff166002811115610c8357610c82611d5d565b5b8160020160009054906101000a900460ff166002811115610ca757610ca6611d5d565b5b14610ce7576040517f08c379a0000000000000000000000000000000000000000000000000000000008152600401610cde90612707565b60405180910390fd5b6000610cf3843361146c565b905060008111610d38576040517f08c379a0000000000000000000000000000000000000000000000000000000008152600401610d2f90612773565b60405180910390fd5b60018260020160016101000a81548160ff02191690831515021790555060003373ffffffffffffffffffffffffffffffffffffffff1682604051610d7b906127c4565b60006040518083038185875af1925050503d8060008114610db8576040519150601f19603f3d011682016040523d82523d6000602084013e610dbd565b606091505b5050905080610e01576040517f08c379a0000000000000000000000000000000000000000000000000000000008152600401610df890612825565b60405180910390fd5b7f3300bdb359cfb956935bca32e9db727413eab1ca84341f2e36caea85bb796968853384604051610e3493929190612845565b60405180910390a15050505050565b600460003373ffffffffffffffffffffffffffffffffffffffff1673ffffffffffffffffffffffffffffffffffffffff16815260200190815260200160002060009054906101000a900460ff16610ecf576040517f08c379a0000000000000000000000000000000000000000000000000000000008152600401610ec6906128c8565b60405180910390fd5b600060036000848152602001908152602001600020905060016002811115610efa57610ef9611d5d565b5b8160010160009054906101000a900460ff166002811115610f1e57610f1d611d5d565b5b14610f5e576040517f08c379a0000000000000000000000000000000000000000000000000000000008152600401610f5590612934565b60405180910390fd5b60006002811115610f7257610f71611d5d565b5b826002811115610f8557610f84611d5d565b5b03610fc5576040517f08c379a0000000000000000000000000000000000000000000000000000000008152600401610fbc906129a0565b60405180910390fd5b60028160010160006101000a81548160ff02191690836002811115610fed57610fec611d5d565b5b0217905550818160080160006101000a81548160ff0219169083600281111561101957611018611d5d565b5b02179055507fb8a5eda082a9bead12e2aad412cc2910ce57ba364f92a818c8185e9ca9185c4d838360405161104f9291906129c0565b60405180910390a160018081111561106a57611069611d5d565b5b81600a0160009054906101000a900460ff16600181111561108e5761108d611d5d565b5b0361109d5761109c83611a1c565b5b505050565b60015481565b6000806000905060005b60036000868152602001908152602001600020600701805490508110156111db5760006003600087815260200190815260200160002060070182815481106110fd576110fc6129e9565b5b9060005260206000200160009054906101000a900473ffffffffffffffffffffffffffffffffffffffff16905084600281111561113d5761113c611d5d565b5b6003600088815260200190815260200160002060060160008373ffffffffffffffffffffffffffffffffffffffff1673ffffffffffffffffffffffffffffffffffffffff16815260200190815260200160002060020160009054906101000a900460ff1660028111156111b3576111b2611d5d565b5b036111c75782806111c390612a18565b9350505b5080806111d390612a18565b9150506110b2565b508091505092915050565b60025481565b600460003373ffffffffffffffffffffffffffffffffffffffff1673ffffffffffffffffffffffffffffffffffffffff16815260200190815260200160002060009054906101000a900460ff16611278576040517f08c379a000000000000000000000000000000000000000000000000000000000815260040161126f906128c8565b60405180910390fd5b60006003600083815260200190815260200160002090506002808111156112a2576112a1611d5d565b5b8160010160009054906101000a900460ff1660028111156112c6576112c5611d5d565b5b14611306576040517f08c379a00000000000000000000000000000000000000000000000000000000081526004016112fd906125c3565b60405180910390fd5b60006103e88260090154836004015461131f9190612a60565b6113299190612ad1565b905060003373ffffffffffffffffffffffffffffffffffffffff1682604051611351906127c4565b60006040518083038185875af1925050503d806000811461138e576040519150601f19603f3d011682016040523d82523d6000602084013e611393565b606091505b50509050806113d7576040517f08c379a00000000000000000000000000000000000000000000000000000000081526004016113ce90612825565b60405180910390fd5b50505050565b60046020528060005260406000206000915054906101000a900460ff1681565b60036020528060005260406000206000915090508060000154908060010160009054906101000a900460ff16908060020154908060030154908060040154908060080160009054906101000a900460ff169080600901549080600a0160009054906101000a900460ff16905088565b60008060036000858152602001908152602001600020905060008160060160008573ffffffffffffffffffffffffffffffffffffffff1673ffffffffffffffffffffffffffffffffffffffff16815260200190815260200160002090508160080160009054906101000a900460ff1660028111156114ed576114ec611d5d565b5b8160020160009054906101000a900460ff16600281111561151157611510611d5d565b5b14611521576000925050506115f8565b60008260050160008460080160009054906101000a900460ff16600281111561154d5761154c611d5d565b5b600281111561155f5761155e611d5d565b5b8152602001908152602001600020549050600081670de0b6b3a7640000846001015461158b9190612a60565b6115959190612ad1565b905060006103e8856009015486600401546115b09190612a60565b6115ba9190612ad1565b905060008186600401546115ce9190612b02565b9050670de0b6b3a764000083826115e59190612a60565b6115ef9190612ad1565b96505050505050505b92915050565b600460003373ffffffffffffffffffffffffffffffffffffffff1673ffffffffffffffffffffffffffffffffffffffff16815260200190815260200160002060009054906101000a900460ff1661168a576040517f08c379a0000000000000000000000000000000000000000000000000000000008152600401611681906128c8565b60405180910390fd5b61169482826117d5565b505050565b6000806000806003600087815260200190815260200160002060060160008673ffffffffffffffffffffffffffffffffffffffff1673ffffffffffffffffffffffffffffffffffffffff168152602001908152602001600020905080600101548160020160009054906101000a900460ff168260020160019054906101000a900460ff16935093509350509250925092565b6060600360008381526020019081526020016000206007018054806020026020016040519081016040528092919081815260200182805480156117c357602002820191906000526020600020905b8160009054906101000a900473ffffffffffffffffffffffffffffffffffffffff1673ffffffffffffffffffffffffffffffffffffffff1681526020019060010190808311611779575b50505050509050919050565b60005481565b600080600054146118715760006003600080548152602001908152602001600020905060028081111561180b5761180a611d5d565b5b8160010160009054906101000a900460ff16600281111561182f5761182e611d5d565b5b1461186f576040517f08c379a000000000000000000000000000000000000000000000000000000000815260040161186690612ba8565b60405180910390fd5b505b6002548310156118b6576040517f08c379a00000000000000000000000000000000000000000000000000000000081526004016118ad90612c14565b60405180910390fd5b600160008154809291906118c990612a18565b91905055506001546000819055506000546003600080548152602001908152602001600020600001819055506000600360008054815260200190815260200160002060010160006101000a81548160ff021916908360028111156119305761192f611d5d565b5b021790555042600360008054815260200190815260200160002060020181905550824261195d91906124ef565b600360008054815260200190815260200160002060030181905550601e600360008054815260200190815260200160002060090181905550816003600080548152602001908152602001600020600a0160006101000a81548160ff021916908360018111156119cf576119ce611d5d565b5b02179055507fea536f0586161945e657cbea6759c95c4cf1068feb8cf43f6823b2db846c835c6000544284604051611a0993929190612c34565b60405180910390a1600054905092915050565b600060036000838152602001908152602001600020905060005b8160070180549050811015611c8e576000826007018281548110611a5d57611a5c6129e9565b5b9060005260206000200160009054906101000a900473ffffffffffffffffffffffffffffffffffffffff16905060008360060160008373ffffffffffffffffffffffffffffffffffffffff1673ffffffffffffffffffffffffffffffffffffffff16815260200190815260200160002090508360080160009054906101000a900460ff166002811115611af357611af2611d5d565b5b8160020160009054906101000a900460ff166002811115611b1757611b16611d5d565b5b148015611b3357508060020160019054906101000a900460ff16155b15611c79576000611b44868461146c565b90506000811115611c775760018260020160016101000a81548160ff02191690831515021790555060008373ffffffffffffffffffffffffffffffffffffffff1682604051611b92906127c4565b60006040518083038185875af1925050503d8060008114611bcf576040519150601f19603f3d011682016040523d82523d6000602084013e611bd4565b606091505b505090508015611c1e577f3300bdb359cfb956935bca32e9db727413eab1ca84341f2e36caea85bb796968878584604051611c1193929190612845565b60405180910390a1611c75565b7f52393538bc0db507386ead0507ce1c41395c6e6ac85c295a720f325179c96d518785604051611c4f929190612c6b565b60405180910390a160008360020160016101000a81548160ff0219169083151502179055505b505b505b50508080611c8690612a18565b915050611a36565b505050565b600080fd5b6000819050919050565b611cab81611c98565b8114611cb657600080fd5b50565b600081359050611cc881611ca2565b92915050565b60038110611cdb57600080fd5b50565b600081359050611ced81611cce565b92915050565b60008060408385031215611d0a57611d09611c93565b5b6000611d1885828601611cb9565b9250506020611d2985828601611cde565b9150509250929050565b611d3c81611c98565b82525050565b6000602082019050611d576000830184611d33565b92915050565b7f4e487b7100000000000000000000000000000000000000000000000000000000600052602160045260246000fd5b60038110611d9d57611d9c611d5d565b5b50565b6000819050611dae82611d8c565b919050565b6000611dbe82611da0565b9050919050565b611dce81611db3565b82525050565b60038110611de557611de4611d5d565b5b50565b6000819050611df682611dd4565b919050565b6000611e0682611de8565b9050919050565b611e1681611dfb565b82525050565b60028110611e2d57611e2c611d5d565b5b50565b6000819050611e3e82611e1c565b919050565b6000611e4e82611e30565b9050919050565b611e5e81611e43565b82525050565b600061010082019050611e7a600083018b611d33565b611e87602083018a611dc5565b611e946040830189611d33565b611ea16060830188611d33565b611eae6080830187611d33565b611ebb60a0830186611e0d565b611ec860c0830185611d33565b611ed560e0830184611e55565b9998505050505050505050565b600060208284031215611ef857611ef7611c93565b5b6000611f0684828501611cb9565b91505092915050565b600073ffffffffffffffffffffffffffffffffffffffff82169050919050565b6000611f3a82611f0f565b9050919050565b611f4a81611f2f565b8114611f5557600080fd5b50565b600081359050611f6781611f41565b92915050565b600060208284031215611f8357611f82611c93565b5b6000611f9184828501611f58565b91505092915050565b60008115159050919050565b611faf81611f9a565b82525050565b6000602082019050611fca6000830184611fa6565b92915050565b60008060408385031215611fe757611fe6611c93565b5b6000611ff585828601611cb9565b925050602061200685828601611f58565b9150509250929050565b6002811061201d57600080fd5b50565b60008135905061202f81612010565b92915050565b6000806040838503121561204c5761204b611c93565b5b600061205a85828601611cb9565b925050602061206b85828601612020565b9150509250929050565b600060608201905061208a6000830186611d33565b6120976020830185611e0d565b6120a46040830184611fa6565b949350505050565b600081519050919050565b600082825260208201905092915050565b6000819050602082019050919050565b6120e181611f2f565b82525050565b60006120f383836120d8565b60208301905092915050565b6000602082019050919050565b6000612117826120ac565b61212181856120b7565b935061212c836120c8565b8060005b8381101561215d57815161214488826120e7565b975061214f836120ff565b925050600181019050612130565b5085935050505092915050565b60006020820190508181036000830152612184818461210c565b905092915050565b600082825260208201905092915050565b7f43616e6e6f7420637265617465206e657720726f756e64207768696c6520707260008201527f6576696f7573206973206265696e67206576616c756174656400000000000000602082015250565b60006121f960398361218c565b91506122048261219d565b604082019050919050565b60006020820190508181036000830152612228816121ec565b9050919050565b60006040820190506122446000830185611d33565b6122516020830184611dc5565b9392505050565b7f526f756e642068617320656e6465642c20706c65617365207761697420666f7260008201527f206576616c756174696f6e20746f20636f6d706c657465000000000000000000602082015250565b60006122b460378361218c565b91506122bf82612258565b604082019050919050565b600060208201905081810360008301526122e3816122a7565b9050919050565b7f426574206f6e6c7920616c6c6f776564206f6e2061637469766520726f756e64600082015250565b600061232060208361218c565b915061232b826122ea565b602082019050919050565b6000602082019050818103600083015261234f81612313565b9050919050565b7f526f756e64206e6f742061637469766500000000000000000000000000000000600082015250565b600061238c60108361218c565b915061239782612356565b602082019050919050565b600060208201905081810360008301526123bb8161237f565b9050919050565b7f496e76616c6964207465616d0000000000000000000000000000000000000000600082015250565b60006123f8600c8361218c565b9150612403826123c2565b602082019050919050565b60006020820190508181036000830152612427816123eb565b9050919050565b7f42657420616d6f756e74206d7573742062652067726561746572207468616e2060008201527f3000000000000000000000000000000000000000000000000000000000000000602082015250565b600061248a60218361218c565b91506124958261242e565b604082019050919050565b600060208201905081810360008301526124b98161247d565b9050919050565b7f4e487b7100000000000000000000000000000000000000000000000000000000600052601160045260246000fd5b60006124fa82611c98565b915061250583611c98565b925082820190508082111561251d5761251c6124c0565b5b92915050565b61252c81611f2f565b82525050565b60006080820190506125476000830187611d33565b6125546020830186612523565b6125616040830185611e0d565b61256e6060830184611d33565b95945050505050565b7f526f756e64206e6f7420636f6d706c6574656400000000000000000000000000600082015250565b60006125ad60138361218c565b91506125b882612577565b602082019050919050565b600060208201905081810360008301526125dc816125a0565b9050919050565b7f4e6f2062657420706c6163656400000000000000000000000000000000000000600082015250565b6000612619600d8361218c565b9150612624826125e3565b602082019050919050565b600060208201905081810360008301526126488161260c565b9050919050565b7f5265776172647320616c726561647920636c61696d6564000000000000000000600082015250565b600061268560178361218c565b91506126908261264f565b602082019050919050565b600060208201905081810360008301526126b481612678565b9050919050565b7f446964206e6f7420626574206f6e2077696e6e696e67207465616d0000000000600082015250565b60006126f1601b8361218c565b91506126fc826126bb565b602082019050919050565b60006020820190508181036000830152612720816126e4565b9050919050565b7f4e6f207265776172647320746f20636c61696d00000000000000000000000000600082015250565b600061275d60138361218c565b915061276882612727565b602082019050919050565b6000602082019050818103600083015261278c81612750565b9050919050565b600081905092915050565b50565b60006127ae600083612793565b91506127b98261279e565b600082019050919050565b60006127cf826127a1565b9150819050919050565b7f5472616e73666572206661696c65640000000000000000000000000000000000600082015250565b600061280f600f8361218c565b915061281a826127d9565b602082019050919050565b6000602082019050818103600083015261283e81612802565b9050919050565b600060608201905061285a6000830186611d33565b6128676020830185612523565b6128746040830184611d33565b949350505050565b7f556e617574686f72697a65640000000000000000000000000000000000000000600082015250565b60006128b2600c8361218c565b91506128bd8261287c565b602082019050919050565b600060208201905081810360008301526128e1816128a5565b9050919050565b7f526f756e64206e6f7420696e206576616c756174696f6e000000000000000000600082015250565b600061291e60178361218c565b9150612929826128e8565b602082019050919050565b6000602082019050818103600083015261294d81612911565b9050919050565b7f496e76616c69642077696e6e696e67207465616d000000000000000000000000600082015250565b600061298a60148361218c565b915061299582612954565b602082019050919050565b600060208201905081810360008301526129b98161297d565b9050919050565b60006040820190506129d56000830185611d33565b6129e26020830184611e0d565b9392505050565b7f4e487b7100000000000000000000000000000000000000000000000000000000600052603260045260246000fd5b6000612a2382611c98565b91507fffffffffffffffffffffffffffffffffffffffffffffffffffffffffffffffff8203612a5557612a546124c0565b5b600182019050919050565b6000612a6b82611c98565b9150612a7683611c98565b9250828202612a8481611c98565b91508282048414831517612a9b57612a9a6124c0565b5b5092915050565b7f4e487b7100000000000000000000000000000000000000000000000000000000600052601260045260246000fd5b6000612adc82611c98565b9150612ae783611c98565b925082612af757612af6612aa2565b5b828204905092915050565b6000612b0d82611c98565b9150612b1883611c98565b9250828203905081811115612b3057612b2f6124c0565b5b92915050565b7f50726576696f757320726f756e64206d75737420626520636f6d706c6574656460008201527f206265666f7265206372656174696e672061206e6577206f6e65000000000000602082015250565b6000612b92603a8361218c565b9150612b9d82612b36565b604082019050919050565b60006020820190508181036000830152612bc181612b85565b9050919050565b7f4475726174696f6e20746f6f2073686f72740000000000000000000000000000600082015250565b6000612bfe60128361218c565b9150612c0982612bc8565b602082019050919050565b60006020820190508181036000830152612c2d81612bf1565b9050919050565b6000606082019050612c496000830186611d33565b612c566020830185611d33565b612c636040830184611e55565b949350505050565b6000606082019050612c806000830185611d33565b612c8d6020830184612523565b8181036040830152612c9e81612802565b9050939250505056fea264697066735822122016d8a69f51e3fc2c74e7a17210b4a528f57767ede5eaaa0899644b827cb3513f64736f6c63430008130033",
  "linkReferences": {},
  "deployedLinkReferences": {}
}